:020000040000fa
:10000000f0ff03201d2600006f1600009f1a00005d
:100010001b2600003f2e0000d72f0000000000002c
:100020000000000000000000000000004b31000054
:1000300087210000000000004b310000d137000094
:100040004b3100004b3100004b3100004b310000c0
:100050004b3100004b3100004b3100004b310000b0
:100060004b3100004b3100004b3100004b310000a0
:100070004b3100004b3100004b3100004b31000090
:100080004b3100004b3100004b3100004b31000080
:100090004b3100004b3100004b3100004b31000070
:1000a0004b3100004b3100004b3100004b31000060
:1000b0004b3100004b3100004b310000dd3a0000b5
:1000c0004b3100004b3100004b3100004b31000040
:1000d0004b3100004b3100004b3100004b31000030
:1000e0004b3100004b310000000000000000000018
:1000f000000000004b3100004b3100004b3100008c
:100100004b3100004b3100004b3100004b310000ff
:100110004b3100004b3100004b3100004b310000ef
:100120004b3100004b3100004b3100004b310000df
:100130004b3100004b3100004b3100004b310000cf
:100140004b3100004b3100004b3100004b310000bf
:100150004b3100004b3100004b3100004b310000af
:100160004b3100004b3100004b3100004b3100009f
:100170004b3100004b3100004b3100004b3100008f
:100180004b3100004b3100004b3100004b3100007f
:100190004b3100004b3100004b3100004b3100006f
:1001a0004b3100004b3100004b3100004b3100005f
:1001b0004b3100004b3100004b3100004b3100004f
:1001c0004b3100004b3100004b3100004b3100003f
:1001d0004b3100004b3100004b3100004b3100002f
:1001e0004b3100004b3100004b31000081330000e7
:1001f000593600004b3100004b3100004b310000fc
:100200004b3100004b3100004b3100004b310000fe
:100210004b3100004b3100004b3100004b310000ee
:100220004b3100004b3100004b3100004b310000de
:100230004b3100004b3100004b3100004b310000ce
:100240004b3100004b3100004b3100004b310000be
:100250004b3100004b3100004b3100004b310000ae
:040260004b3100001e
:020000040000fa
:10026400f8b500bff8bc08bc9e467047f9310000e1
:10027400f8b500bff8bc08bc9e467047d5310000f5
:020000040000fa
:08028400800c000001000000e5
:020000040000fa
:04028c0002f0e2bbdf
:020000040000fa
:100290002de9f04f2ded028bd2e9008997b0cde921
:1002a0000c138b6808930b690f90d1e900b6149377
:1002b000cd68002200234046494603f0edf840b9de
:1002c0001bf0040f32d11bf00803059330d020231c
:1002d00003e089f0004399462d232b70089b03f11e
:1002e000ff3a012305934c4929f0004300208b423b
:1002f00008bf80451fd10d9b413b192b059b94bf27
:10030000464947492b44184603f0e2fb284603f0d0
:10031000a3fbcdf800b00246089b0f98294602f0d7
:1003200003fa17b0bdec028bbde8f08f2b23d4e7a6
:10033000ddf820a0d7e7994208bf404509d20d9bc0
:10034000413b192b059b94bf364937492b4418462e
:10035000dae7002200234046494603f0d3f89fed38
:100360002c7b8ded027b48b300240d9803f09cfba1
:10037000002ec3b20993c0f2e781672b5ad1002e39
:1003800008bf0126231d02dbb442c0f2ca816527e3
:1003900061e09ded067b8ded027b01340022234b55
:1003a000dde9020101f0c8fd42464b46cde90601f8
:1003b00003f056f80028ecd000271fe00446ede7d4
:1003c00014f5967f11da87b90022194b4046494649
:1003d00001f0b2fd002280468946154bdde902019d
:1003e00001f0aafdcde902010127dde902010022a9
:1003f0000e4b01f049facde90201013cdde902238f
:100400004046494603f048f80028d9d1ade700bf7f
:10041000000000000000f03f0000f07f983a00006c
:100420009c3a0000a03a0000a43a000000002440da
:1004300000005043099f662f06f101060bd1002ce6
:1004400004da9fedbb7b8ded027b0024099b672bbb
:1004500018bf361966279ded027bcde906898ded23
:100460000a7b00230e93dde90a23dde9060101f092
:100470000bfa41ec100b01f07bff51ec100bb0eece
:10048000408af0ee608a02f0f3fdb0ee480af0ee2a
:10049000680a069b1093079b159083f00043119305
:1004a0009ded0a1b9ded102b03f002f953ec102b70
:1004b00083f000430793dde90a01a14b8ded060aa5
:1004c000002201f0e1f90e9b01339e42cde90a01c1
:1004d0000e93c8d100229b4b01f02efdcde90a01fd
:1004e00002460b46dde9060102f0d6ff002840f087
:1004f0008580dde90a23dde9060103f003f810b188
:10050000159bda077ad5dde90a234046494600f013
:100510008fff0022cde90601894bdde9020101f0e0
:100520000bfddde90623cde90a0102f0d2fe002829
:1005300069d0662f04f1010469d10136a146a9eb07
:10054000060310934ff000080bf01003059ecdf842
:1005500008801593109b994540f08380029b002be7
:1005600000f0c9800022652f05eb0600aa5529d1ad
:10057000149b1499013b9442ea54c1f1030ebcbf91
:10058000644201220a21002c40f0bc800eeb030cd7
:10059000bcf1000f00f3b680002a03f1ff3114bf55
:1005a0002d222b226a540d9a413a023b192a98bff8
:1005b00045279e4205eb0301ef54aaf1020a01da36
:1005c00003f086fa0bf00303022b7ff49faebaf11f
:1005d000000f7ff79bae284603f03efa05eb0a03b7
:1005e000059a824240f39980059b2b441846524657
:1005f000302103f041fa0023089387e69fed4e7bfc
:100600008ded0a7b7fe79ded027b8ded0a7b652feb
:1006100014bfa1464ff0000991e7029a52b9b9f10f
:10062000000f07da0e992e226a54012201360af1d0
:10063000ff3a029205eb0801aa19314403e04ff09a
:10064000300002f8010b9142f9d108eb0602303379
:10065000aaeb080808f1ff3a561cab544ff000080b
:1006600027e00c9b0e961b69053bb3427ff676afe5
:10067000dde90a23dde9060101f006f941ec100b82
:1006800001f076fe51ec100bb0ee408af0ee608a7d
:1006900002f0eefc159a09280346a8bf092302437d
:1006a000bbd1099a672ab8d1b9f1000fc2da08f1b3
:1006b0000108069b1293079bb0ee480af0ee680a09
:1006c00083f0004313939ded0a1b9ded122b02f066
:1006d000efff53ec102b83f000430793dde90a0191
:1006e0000022174b8ded060a01f0cef809f1ff3913
:1006f000cde90a012ee71bf0100f1ebf2e23ab55cc
:1007000001362fe7b4fbf1fc013b01fb1c44303404
:10071000ec540af1ff3a644635e72a5c1a54013872
:100720005ee7002cbff696ae662784e6062629e62d
:10073000000000000000f03f00000000000000008a
:100740000000244000001440099b672beed01f4698
:04075000062670e623
:020000040000fa
:0407540000207047ca
:020000040000fa
:100758002de9f04f95b0cde912030b68089392ed9f
:10076800007b4b680a938b6809930b690d93cc68df
:100778000022002351ec170b8ded047b02f088fe5c
:1007880040b9089b580734d4089b13f0080732d0a7
:10079800202306e0dde9042181f00043cde90423ac
:1007a8002d232370099b01275a1edde90403dff876
:1007b800f8b223f000414ff0000a594508bf5045f0
:1007c8001bd1139b413b192b04eb070094bfb04985
:1007d800b04903f079f9af4803f03af9089b009360
:1007e8000246099b1298214601f09aff15b0bde810
:1007f800f08f2b23d5e7099ad7e7139b8b45a3f1f5
:10080800410308bf82450b9309d2192b04eb07005b
:1008180094bfa149a14903f057f9a048dce730216a
:10082800e1550b997b1c1a2934bf58217821e154d2
:10083800931e079300220023dde90401023702f02a
:100848005dfe002800f07b819fed8f7b8ded027ba4
:1008580000260a9bdde90289002bdde904abb8bf5d
:1008680018230e93002542464b465046594601f040
:1008780007f841ec100b01f077fd42464b4651ec6e
:10088800100b8ded100b01f053fb02460b46504642
:10089800594603f028f9824b82468b464046494622
:1008a800002201f045fb6b1c0c930a9b002b804631
:1008b800894606da002200235046594602f01efef9
:1008c80028b90e9bab4200f3408101330c93002200
:1008d800744b4046494601f02bfb80468946024648
:1008e8000b465046594602f0d3fd002840f02f81b0
:1008f80042464b465046594602f000fe30b1dde90b
:10090800100102f0b1fbc10740f1218142464b467c
:10091800dde9040100f088fdcde90401dde90421e9
:1009280021f00043604900208b4208bf82423ff417
:1009380048af4ff000083d46c246c1460d9b053bf7
:10094800ab42ab4633d9dde90223dde9040100f00f
:1009580097ff41ec100b01f007fd51ec100b8dedea
:100968000e0b02f081fb002840f0f680b9f1000f71
:1009780000f0f28008f10108dde90223dde90e014b
:1009880001f0d6fa02460b46dde9040103f0abf8a4
:10099800434bcde904010022dde9020101f0c8fa68
:1009a8000c9b09f101094b45cde90201c6d1baf109
:1009b800000f1dd1b8f1000f00f015810a9b002b24
:1009c80040f31181089bda0700f10d812e2308eb13
:1009d8000502635522446319302103f8011f9a4226
:1009e800fbd1079b45446fea080843440135079348
:1009f8000d9b0d990022013b9642625504eb0500c0
:100a0800e254bcbf76420122c1f1020e4ff00a083f
:100a1800002e40f0d8800eeb030cbcf1010f00f063
:100a2800d280002a03f1ff3114bf2d222b226254f9
:100a38000b9a023b1a2a34bf502270229d4204ebc3
:100a48000301e25401da03f03ff8089b03f00303c3
:100a5800022b14d1079ba3f10208b8f1000f0edd99
:100a6800204602f0f5ff04eb0803b84280f2b78095
:100a780042463021e01902f0fbff0023099320468b
:100a8800aae600bfaff30080000000000000f03fbe
:100a9800883a00008c3a0000903a0000943a00002e
:100aa8000000b03f000020400000f07fcde902893f
:100ab8000136dde902231046194600f0b5fc8046f0
:100ac800894602460b46dde9040102f0e1fc0028f4
:100ad800ecd0dff82cb1dff82c914ff0000a4ff082
:100ae8000008dde90223dde9040102f0d1fc002859
:100af8003ff4afae52465b46dde9020101f018fa59
:100b08000022002302f0fafc78b142464b46dde9a8
:100b1800020101f00dfa4246cde902014b46dde93a
:100b2800040101f005facde90401dde902015246ac
:100b38005b4601f0fdf9013ecde90201d1e79fede9
:100b48002e7b06468ded027bb3e70c9d8be64ff0be
:100b580000084ff00009d9e6baf1000f0bd1b9f13e
:100b6800000f08d02e2304f80b30079b013b0135fa
:100b780007934ff0010a04eb080362192b4403e0c2
:100b88004ff0300102f8011b9a42f9d1079b05eb9f
:100b9800080ba3eb08080b9b0928d4bf303057304b
:100ba800192b06d840f02003613b192b01d802f01d
:100bb8007eff08f1ff330bf1010504f80b000793e2
:100bc8004ff00008d8e60799b6fbf8fc013b08fb94
:100bd8001c6630360139e6540791664618e7225cf0
:100be8001a54013841e7089bdb067ff501af2e2335
:100bf80063550135fce600bf000000000000f03f2f
:080c08000000e03f0000504332
:020000040000fa
:100c10002de9f04fadb00027dff8e4a203910646be
:100c20001546b8464ff0ff3903990b78002b00f0ba
:100c3000f9800cabcde907890a938023cdf8248095
:100c40000b9300240b5d0bb1252b26d134b122462a
:100c5000304602f05cfb039b23440393039b1a780a
:100c6000252a40f0d78003f1010bcdf80cb0039892
:100c700003782b2b1ad025d8202b1bd0232b1dd04b
:100c80002a2b27d002f03efa0990039b1a78303abb
:100c9000092a2ed801330393f7e70134d2e7079be3
:100ca00043f00103013007930390e0e7079b43f013
:100cb0000403f7e7079b43f00803f3e7079b43f0c0
:100cc0001003efe72d2bead0302bd9d1079b43f04f
:100cd0000203e7e72b681a1d1b682a600130002b0e
:100ce0000390099305da079a5b4282f001020792aa
:100cf0000993079bda0744bf23f002030793039b82
:100d00001a782e2a0dd1581ccdf8208003905a78dd
:100d10002a2a25d1023303932b681a1d1b682a60e7
:100d2000089303a802f080fb039b0190187802f05f
:100d3000bbfe6928019979d032dc632800f0c680b7
:100d400019dc252800f0d080612853d025238df8a8
:100d50001030cdf80cb0cdf81c80cde90898c0e07b
:100d600002f0d0f90890039b1a78303a092ad8d8b3
:100d700001330393f7e7642858d06728e6dc2a4656
:100d800004a802f0d6fc002800f09c80039b5a1cab
:100d900003921b7804aa07a93046fff779fa38e0d6
:100da000702873d015dc6e2800f087806f28cdd1b5
:100db0002b46002204a801f041fb002800f08280ad
:100dc000039b04aa013307a93046039301f0a1fd58
:100dd0001fe075283ad0782848d07328b6d18029ea
:100de00070d1039b2a6801330393131d2b60126893
:100df00000235be02a4604a802f09bfc002861d097
:100e0000039b5a1c03921b7804aa07a93046fff7dc
:100e1000a3fc04443c44a7426edd384b4f221a60c9
:100e20004ff0ff3738462db0bde8f08f2b4601223a
:100e300004a801f003fb002844d0039b04aa01335b
:100e400007a93046039301f04ffbe2e72b4600224f
:100e500004a801f0f3fa002834d0039b04aa01335c
:100e600007a93046039301f0bfffd2e72b460022cb
:100e700004a801f0e3fa28b3039b5a1c03921b78e1
:100e800004aa07a9304601f0eff8c2e72b4600227a
:100e9000f02104a801f0d2faa0b1039b013303931f
:100ea000dde90423134306d10023524607a9304647
:100eb00001f06effade77823e2e72b463a1904a86c
:100ec00001f072fc039b01330393a3e78029f9d15e
:100ed000039b013303932b681a1d1b682a608df84e
:100ee0001030012304aae1e78029ebd1039b8df8a0
:100ef000100001330393f4e7274695e660170020be
:040f0000283900008c
:020000040000fa
:100f04002de9f04f099f154604468e461e46002bd8
:100f140040f0cc808a42b2fa82fc4cd9bcf1000f7a
:100f24000bd0ccf1200801fa0cfe20fa08f802fae2
:100f34000cf548ea0e0e00fa0cf44fea15491ffab4
:100f440085f8befbf9fa210c09fb1ae30afb08fb3e
:100f540041ea03439b452ad9eb180af1ff3004d236
:100f64009b4502d9aaf102002b44a3eb0b03a4b2c4
:100f7400b3fbf9f209fb123302fb08f844ea034419
:100f8400a04516d92c1902f1ff3303d2a04501d98b
:100f9400931e2c44a4eb080443ea004027b124fa2e
:100fa4000cf400233c607b603146bde8f08f504672
:100fb400dbe71346eee702b9ffdebcf1000f2ed1ea
:100fc4008b1a01264fea154eaab2b3fbfef8210c88
:100fd4000efb183308fb02f941ea0343994561d932
:100fe400eb1808f1ff3004d2994502d9a8f10200a8
:100ff4002b44a3eb0903a4b2b3fbfef10efb1133a4
:101004004a4344ea0344a2424ed92c1901f1ff3366
:1010140003d2a24201d98b1e2c44a41abce7ccf102
:10102400200e02fa0cf521fa0ef901fa0cf320fa5b
:101034000efe4eea03034fea154800fa0cf4b9fb1e
:10104400f8f11ffa85fe08fb1192180c01fb0ef64d
:1010540040ea0242964221d9aa1801f1ff3003d294
:10106400964201d9881e2a44921b9bb2b2fbf8f91e
:1010740008fb192209fb0efe43ea02439e450fd9e1
:10108400eb1809f1ff3604d29e4502d9a9f10206f4
:101094002b44a3eb0e0346ea004693e70846e3e736
:1010a4004e46f6e74046a4e70b46b6e78b4206d920
:1010b400002f7ed00026c7e90001304674e7b3fa5a
:1010c40083fcbcf1000f0fd18b4201d3824209d8bb
:1010d400841a61eb030e0120002f6dd0c7e9004e86
:1010e400002661e76046f7e7ccf1200e03fa0cf323
:1010f40022fa0ef521fa0ef41d4301fa0cf320fa3c
:101104000ef10b434fea154a00fa0cf6b4fbfaf958
:101114001ffa85f80afb19401c0c09fb08f144ea84
:101124000044a14202fa0cf23fd92c1909f1ff3014
:1011340004d2a14202d9a9f102002c44641a9bb240
:10114400b4fbfaf90afb194409fb08f843ea044121
:1011540088452cd9691809f1ff3304d2884502d98e
:10116400a9f10203294443ea0040a1eb0801a0fbd2
:1011740002894945c2464c4602d306d1464504d2ab
:10118400b8eb020a69eb05040138afb1b6eb0a0308
:1011940061eb040606fa0efe23fa0cf34eea03038f
:1011a40026fa0cf6c7e900369ae74846c6e74b46e6
:0c11b400d9e73e463846f7e63e46f5e631
:020000040000fa
:1011c000cc1600201c00000000000000e8160020e3
:1011d0001000000000000000f816002010000000c1
:1011e00000000000081700201000000000000000b0
:1011f000181700200c000000000000002417002039
:1012000008000000000000003c170020040000005f
:10121000000000002c170020080000000000000063
:101220006817002002000000000000006a1700207c
:101230000200000000000000401700200400000031
:10124000000000004417002004000000000000001f
:101250004817002004000000000000004c17002088
:101260000400000000000000b4150020c8000000c9
:1012700000000000501700200400000000000000e3
:101280006c1700200100000000000000000000209a
:10129000d007000000000000d0070020d0070000a9
:1012a00000000000541700200400000000000000af
:1012b0005817002004000000000000007c160020e9
:1012c0005000000000000000701700206c000000bb
:1012d000010000007c170020781700207c170020f8
:1012e0000000000025000000a80f002000040000fe
:1012f00000000000000000000000000000000000ee
:1013000000000000000000000000000000000000dd
:101310005507000000000000000000000000000071
:1013200000000000b52a00000000000000000000de
:1013300000000000000000000000000000000000ad
:10134000a00f002008040000000000003c1800204e
:101350002000000001000000010000000300000068
:10136000000000000000000000000000000000007d
:10137000000000003417002034170020080000008f
:10138000000000005c1700200400000000000000c6
:10139000a81300200c02000000000000dc17002051
:1013a00060000000010000000100000003000000d8
:1013b000000000000000000000000000000000002d
:1013c00000000000852c000000000000000000006c
:1013d00000000000113b00002f3900000000000059
:1013e00000000000000000000000000000000000fd
:1013f00000000000000000000000000000000000ed
:101400000000000000000000601700200400000041
:10141000000000006417002004000000000000002d
:10142000000000000000000044444444444444449c
:020000040000fa
:1014300030b591ea030f00f18280841a71eb030c3e
:1014400005d2121953eb0c03001b71eb0c0140f297
:10145000000ccff6e07c1cea430f52d0bceb410fee
:101460005fd90c0da4eb135e5ff0010c6cf31f5100
:101470006cf31f53def1200c2ad303fa0cf540194c
:1014800041f1000122fa0ef5401923fa0ef56941e7
:1014900012fa0cf2cd0208d349085fea30005fea85
:1014a000320228bf42f001020134013c5fea500cd5
:1014b00072f1004250f1000051eb04514ff400135f
:1014c00013eb410f38bf30bd6ff31301002030bd67
:1014d000bef1200ebef1200f1ed223fa0ef54019e8
:1014e00041f10001cef1200c124218bf012203fa93
:1014f0000cf52a43cee711ea5c0f04bf002000215f
:1015000030bd1cea410f04bf01f00041002030bd96
:1015100001f00041002030bd21f4801101eb0451a5
:1015200030bd004218bf41f00101bceb410f08bfc4
:1015300030bd4ff0fe4141f47801002030bd83f012
:101540000043841a71eb030e07d28ef0004e001b8d
:1015500071eb0e01121953eb0e0340f2000ccff6a3
:10156000e07c1cea430fc6d0bceb410f72d90c0dd6
:10157000a4eb135ec90241ea5051c00241f00041a0
:10158000db0243ea5253d20243f00043def1200c67
:1015900041d312fa0cf522fa0ef203fa0cf542eae4
:1015a000050218bf42f0010223fa0ef3801a994196
:1015b000e30ac4f30a0411f0404f03d418d0013ced
:1015c00040004941013c23d44205c00a40ea415051
:1015d000c90a51eac3715fea500c72f1004250f13e
:1015e000000051eb045130bd01002fd00020203c01
:1015f0000029f9d0b1fa81fcdcf1200e11fa0cf1ce
:1016000030fa0ef510fa0cf02943a4eb0c04d9e7dc
:101610000020d90730bdaef1200ebef1200f0dd253
:10162000cef1200c03fa0cf533fa0ef32a4318bf5f
:1016300043f00103c01a61f10001b9e721f0004154
:10164000c00a40ea4150c90a01eb045130bd0020f4
:10165000002130bd004218bf41f00101bceb410f39
:0e1660007ff467afbceb430f3ff463af30bdc8
:020000040000fa
:02166e00fee795
:020000040000fa
:101670002de9f84f002001f033fb02f034fa02f0bc
:1016800057f902f06df902f077f96d4802f066f84b
:1016900000226c49104602f0c7f9c8236a4a6b4918
:1016a000002000f0edfd02f073f902f04df9684bf7
:1016b0004ff00042c3f88420664e0ff27c19d9e93e
:1016c0000089dff8bcb1644f67e0644b1d680024fb
:1016d000dff874a13af8140002f0b0f842464b4625
:1016e00000f02afc02f086f880b200fb00550134bd
:1016f000642cefd1abf800005948a0fb053040093d
:1017000002f0ebf841ec100b00f07afb51ec100bff
:1017100002f070f8534b18603b6801333b604f4b4d
:1017200000221a6076e0504b1d684e4b1a884f4bd2
:1017300023f815204e4b1a6800234c4830f813103c
:101740000a4401330a2bf9d14a490b60b2fbf4f287
:1017500047490a603b600135092d434b92bf1d602c
:1017600000221a60364cbbf8001004f1100002f0a1
:1017700053f804f12005284602f04ef8394b196859
:1017800004f1280002f048f8284602f045f8384bea
:10179000196804f1380002f03ff8374a0021136855
:1017a000012b08bf11603378002bf8d00023337071
:1017b000324b1b889bb2002b87d0284b1d6800241e
:1017c000dff8c0a03af8140002f038f842464b4661
:1017d00000f0b2fb02f00ef880b200fb00550134bd
:1017e000642cefd1abf800001d48a0fb0530400988
:1017f00002f073f841ec100b00f002fb51ec100bff
:1018000001f0f8ff174b18603b6801333b60134b46
:1018100000221a603c680a2c85d8124b1a6891b2d3
:10182000124b23f8141033f8122011490b6813449b
:10183000b3fbf4f30b6095e70f0bb5a679c7e93f4f
:10184000d82f0000392f000000000020401c00436a
:10185000008000416c170020441700204017002032
:101860001f85eb515017002054170020b41500209d
:10187000481700204c1700203c1700206a17002052
:0818800068170020d0070020ca
:020000040000fa
:10188800f0b581ea030e0ef0004e40f20007cff6e5
:10189800e07717ea41051ebf95ea070f17ea4304e8
:1018a80094ea070f00f0c5806d0da5eb545707f5b6
:1018b80080674ff0004646eac12444ea5054c0020b
:1018c80046eac32343ea5253d202801a9c4104d207
:1018d8000018644180185c41013f5b084fea3202fe
:1018e8000025002140f001004ff0070604e0801aaf
:1018f8009c4136d340416441801a9c4136d34041d3
:101908006441801a9c4136d340416441801a9c410d
:1019180036d340416441801a9c4136d340416441ea
:10192800013e17d0801a9c4136d340416441801a49
:101938009c4136d340416441801a9c4136d3404192
:101948006441090201eb156190ea052520f0ff00ca
:101958004540cce7801a9c4156d335e080185c415d
:10196800c8d20018644180185c41c8d2001864418c
:1019780080185c41c8d20018644180185c41c8d204
:101988000018644180185c41c8d200186441013ec7
:1019980017d080185c41c8d20018644180185c4197
:1019a800c8d20018644180185c41c8d2001864414c
:1019b800090201eb156190ea052520f0ff0045407a
:1019c800cce780185c411fd3420918bf44f00104da
:1019d800490101ebd56100f01f0000eb451021f42f
:1019e800801141ea0e01013041f10001244208bf93
:1019f80020f00100b7f5006f3eda013f49dd01eb49
:101a08000751bde8f0407047490101ebd56100f08e
:101a18001f0000eb451021f4801141ea0e01b7f5d3
:101a2800006f29da013f34dd01eb0751bde8f040d2
:101a38007047004218bf41f00101124218bf43f03d
:101a48000103b7eb410f2cbfb7eb430f1ce0b7eb1b
:101a5800410f04bfb7eb430f16e017ea410f04bf6d
:101a680017ea430f10e017ea410f12d017ea430fa5
:101a780002d0b7eb430f0cd04ef0fe4141f4700199
:101a88000020bde8f04070474ff0fe4141f4780176
:061a9800f6e77146f4e7d9
:020000040000fa
:021a9e00fee761
:020000040000fa
:101aa000634b42f206625a611a46136913f0010f42
:101ab000fbd05f4b42f206629a611a46136913f03b
:101ac000020ffbd05b4b00221a74a3f580635a4ac5
:101ad0009a630f225a631a46d36b13f0040ffbd19b
:101ae000534b022283f830201a46d36b13f0020fb7
:101af000fbd14f4a136c03f00303032bfad14c4b79
:101b00004e4ada6427229a641a46136d13f0040fc2
:101b1000fbd1474b022283f844201a46136d13f081
:101b2000020ffbd1424a536d03f00303032bfad19a
:101b30003f4b02221a7703f54063414a5a621a4624
:101b4000536813f0080ffbd13e4b01225a711a461d
:101b5000d37813f0010ffbd03b4b3c4a1a621a4674
:101b6000536813f0040ffbd1374b384a9a621a4678
:101b7000536813f0100ffbd1334b4122c3f8a4205c
:101b80001a46d2f8a43013f0400ffad02e4b41225f
:101b9000c3f8e8201a46d2f8e83013f0400ffad024
:101ba000294b4122c3f8f8201a46d2f8f83013f036
:101bb000400ffad0244b4022c3f80c211a46d2f829
:101bc0000c3113f0400ffad01f4b4122c3f81c21f7
:101bd0001a46d2f81c3113f0400ffad01a4b4122aa
:101be000c3f820211a46d2f8203113f0400ffad062
:101bf000154b4122c3f824211a46d2f8243113f0a0
:101c0000400ffad0104b4022c3f828211a46d2f8d0
:101c1000283113f0400ffad00a4b6ff07f421a615f
:101c20004cf2ff725a6140f282321a62704700bf72
:101c3000001000400014004040000200600001005d
:101c40000701010000080040001c004008010100dd
:020000040000fa
:101c50002de9f04f87b0039003a801f0fbfa0028ac
:101c600003da002007b0bde8f08f039b1b095d1e5f
:101c7000202d0fd9023b5e4ab3f5007f35bf02eb42
:101c8000d30302ebd31313f8045c13f8045c34bfe2
:101c9000013511350123a5f12001c5f1200203fa18
:101ca00001f923fa02f203fa05f8d8f1000849ea2b
:101cb000020969eb4909cde90089dff84081dff8c5
:101cc00030914746d8e90023009902ea010a0199b8
:101cd00003ea010b5aea0b0342d1039b05a8103318
:101ce000059301f079fe18b9424b0c221a60b9e74e
:101cf000d8f80852a84206d0059b103b0593012353
:101d000000f110058360059bea18012143f00103ef
:101d1000b5f1080442f8083c42f8041cc7f8082250
:101d200045f8043c9dd0204601f036fc88b155f8ba
:101d3000083c55f8041c23f00103e31a5a6822f00a
:101d400001020a445a6055f8041c21f00101625056
:101d50001c462046039901f067fc04f1080081e766
:101d60005446254bbaf1000f34d1cbf1000000ea04
:101d70000b00434309ebd36393f83c6020363046b5
:101d800001f07efd731c57f8334007ebc303083b9b
:101d90009c4297d0272e26dd0235ae4201dc3f2e35
:101da00021d16268039922f00102551a284601f0f8
:101db0001ffb864217d1e068a6686318d8609e6052
:101dc00083609868c36041f0010060505d60a55079
:101dd0006060bee7caf100002040434309ebd363d3
:101de00093f83c60cbe73146204600f0a5ffb0e712
:101df000282c00006017002029e66b07a81300209c
:020000040000fa
:101e000051ec100b2de9f043041841eb0105b5f539
:101e1000001f08bf002c83b075d3002871f10003a8
:101e200077db6ff400134ff0ff32ab4208bfa242e2
:101e30005dd301a801f0acf957ec106b10ee100a5d
:101e400037a3d3e90023394600f076f836a3d3e967
:101e50000023fff7edfa04460d4602460b463046d6
:101e60003946fff711fd22462b46fff7e1fa41ec18
:101e7000100b4ff0ff30019c01f00cf859ec108b67
:101e800010ee102a4b4630463946fff7fdfc42461d
:101e90004b46fff7cdfa41ec100b4ff0ff3000f04e
:101ea000f9ff59ec108b10ee102a4b46304639469c
:101eb000fff7eafc02460b464046494601f017fe92
:101ec00041ec100b4ff0ff3000f0e4ff404653ecc4
:101ed000102b494601f00bfee50702460b4609d4dc
:101ee00004ebd474601043ec102b00f0d3ff03b06c
:101ef000bde8f0830ea3d3e9002300f01df8013400
:101f000002460b46ece7002001f0004141ec100bcb
:101f1000ede79fed010beae7000000000000f87f0d
:101f200018096d3997e2e23ff7cc920035b5da3ff8
:081f3000cd3b7f669ea0e63f59
:020000040000fa
:101f3800f0b540f2ff7681ea030c16ea115e1ebf87
:101f4800b64516ea1355b54252d021ea465141f436
:101f58008011a1fb024723ea465343f48013ae44a1
:101f6800a0fb03650cf0004c36197d41a1fb03472b
:101f780047f10003a0fb0217f619654153f100036e
:101f8800094218bf46f0010640f2fe74b3f5007f1f
:101f980013d2aef5806ea64523d24cea033128034e
:101fa80041ea155140ea16503203450872f10042e1
:101fb80050f1000051eb0e51f0bdaef2ff3ea645c8
:101fc8000fd24ceac321e80241ea555140ea565083
:101fd800f202450872f1004250f1000051eb0e5137
:101fe800f0bd1eea0e0f2dd50cf000410020f0bd0b
:101ff80016ea115f04bf01f000410020004218bf3b
:1020080041f0010116ea135f04bf03f00043002208
:10201800124218bf43f0010306ea1354b44218bf32
:10202800b64503d00cf000410020f0bd21f000417e
:1020380023f00043b1eb065f0cd8b3eb065f09d879
:1020480041b13bb10cf0004141f0fe4141f4700157
:102058000020f0bd40f20001c7f6f8710020f0bd85
:020000040000fa
:102068002de9f04fd1e901590e68d1f80c808bb0f9
:10207800002da8bf26f002060393b8bf012516f06d
:10208800100302900f460493d2e900ab37d05aea06
:102098000b0334d0a9f102033c6916f0080104f1de
:1020a800ff3405914ff0000108f8041006f0020112
:1020b8000691039918bf03f1ff335b1b4139012ccb
:1020c8001fdc049b002b4cd1059b1bb1013c20233a
:1020d80008f804303a690096013a4b46121b08eb9f
:1020e8000401029800f01cfb029b5b68db0503d52a
:1020f8007b689842b8bf18460bb0bde8f08f4b46d6
:10210800cae75aea0b0007d1002d05dc5819002848
:10211800d7dd06980028d4d00af00f000928d4bfcc
:1021280030305730192904f1ff340ed840f0200c14
:10213800acf1610cbcf1190f07d8cde90831079251
:1021480001f0b5fcdde90831079a08f804004fea08
:102158001a1040ea0b704fea1b1c013d8246e34609
:10216800ade7d2e900231343aed008eb0403039a8a
:0e21780003f8012c023c302308f80430a4e7e1
:020000040000fa
:02218600fee772
:020000040000fa
:102188002de9f84300286ad050f8043ca0f108046f
:1021980023f00106a719a259934200d0ffde7a68fe
:1021a80023681340da070fd4204601f0f1f900281c
:1021b80057d1384601f062fa0028f0d07b6823f046
:1021c80001031e441f44eae746f0010363603046fa
:1021d8003b6001f009f9054601f04efb23687a6877
:1021e8001340db07e0d5dff88ce0dee90089c5f1b4
:1021f800200ca5f1200228fa05f009fa0cfc29faae
:1022080002f240ea0c001043012100ea0102002317
:102218001343c5f120007346a5f1200212d121fa1b
:1022280000f001fa02f2a94042ea00021ebfdef8fd
:1022380000000143cef8001022b1def804100a4372
:10224800cef80420681c03ebc003a3f10802666003
:102258003e60a2605a68e2605c60e3689c60bde82a
:10226800f883236823f00103e41a636823f0010369
:082278001e449ee7a81300209c
:020000040000fa
:1022800070b40401364d25442d7b04f1824404f5dd
:10229000204494f84e4014f0030f02d1edb2002d0b
:1022a00057d1040104f1824505f52045032685f840
:1022b0004e602b4d254401262e732a4d2c5b14f4c1
:1022c000806f31d0194405eb001461600101254c89
:1022d000615a11f4006f2cd01a4404eb00118a608b
:1022e000204902018c18895a9bb2c1f301210b418c
:1022f0009bb2638002f1824303f520431a6c42f0e3
:1023000002021a641a6c12f4fe4f24d193f846307c
:1023100013f0400f22d114490c69012202fa00f394
:1023200023430b61104617e00e4c04eb0014616070
:10233000cce70d49498811f4404f04d1094901eb1c
:1023400000118a60cce71168064a02eb0012916026
:10235000c6e7002000e0012070bc70470120fbe7c9
:0c236000f8160020e816002000a0004144
:020000040000fa
:04236c00704700bff7
:020000040000fa
:1023700053ec102bc3f30a512de9f04140f2fd70ec
:102380004e1e86421d4645d8a1f2ff30002835db9f
:10239000332831dc284bc0f120084ff0ff3c03fa12
:1023a00008f2a1f21f412cfa00fc10ee104a4cea90
:1023b000020c23fa01f24cea020c23fa00fe04eab2
:1023c0000c0605ea0e0724ea0c0256ea070425ea81
:1023d0000e030fd0002a73f100040bda4ff48015be
:1023e00005fa08f425fa01f10c43121925fa00f058
:1023f00040eb030343ec102bbde8f081002a73f19e
:10240000000303db9fed080bbde8f0819fed080b97
:10241000bde8f0810029efd10a4603f0004343ec08
:10242000102be9e7aff3008000000000000000007f
:0c243000000000000000f0bfffff0f00e4
:020000040000fa
:10243c00882910b536d012dc812943d003dc8029e1
:10244c0040d0002010bd82290ed08429f9d1196802
:10245c0002b30a1d1a60b1f90020d3171ee0a0299f
:10246c002bd00bdc9029ecd11968073121f0070136
:10247c0001f108021a60d1e900230fe0c02901d054
:10248c00f029ded11a68111d19601368036000234e
:10249c00436005e00a1d1a600a880023c0e9002386
:1024ac000120cfe7196822b10a1d1a6091f90020aa
:1024bc00d3e70a1d1a600a78efe71a68111d196034
:1024cc001268cae719681ab10a1d1a600a68c4e7cb
:0c24dc000c1d1c600b68c0e90032e1e739
:020000040000fa
:1024e8002de9f041d2e900230c4686b007465feaa1
:1024f800d37820684968a5680590e66841d05242bb
:1025080063eb4303002908db20f002000590b8f1d3
:10251800000f02d1059948072ad5691e05a802901f
:102528000a20cde90010204600f078f9b8f1000f34
:1025380002d1059b59071fd5b8f1000f00f1ff30f4
:1025480014bf2d232b2333542269059b0093013a92
:102558002b46121a3118384600f0e2f87b68db0582
:1025680003d563689842b8bf184606b0bde8f08145
:102578000807d2d42946d1e71a07e5d50138202320
:08258800e1e70029c0dac5e714
:020000040000fa
:102590002de9ff41836946690093f61acde901618f
:1025a00004461746039216444ff002086d46424611
:1025b0002946206801f008f8b04209d1d4e9023276
:1025c000c4e905331a44a262384604b0bde8f0817c
:1025d00000280dda6268002342f01002b8f1020f01
:1025e000a362c4e90533626015d06b68ff1aebe79c
:1025f0006b68984288bf0835a6eb000688bfc01af2
:102600002b6803442b606b68a3eb000088bf08f1c4
:0a261000ff386860cbe71f46d6e7ed
:020000040000fa
:02261a00fee7d9
:020000040000fa
:10261c0008b5194b9847194b9847eff3108172b6d0
:10262c00174ad2f8883043f47003c2f88830bff3ed
:10263c004f8fbff36f8f01b962b6124a936823f0c4
:10264c00010393601346da6812f0010ffbd10d4bb6
:10265c0010225a6001229a60fdf712fe0a4b23f0f9
:10266c007f03074a9360094b9847094b9847094bde
:10267c009847fef7f7fffee7bb300000bb300000c9
:10268c0000ed00e00060004100000000cd2b0000d8
:08269c00bb300000bb30000060
:020000040000fa
:1026a40010b582b000230193030103f1824303f5c3
:1026b400204393f84e30dbb20193019b13f0020fd9
:1026c4000dd0010101f1824202f52042022382f879
:1026d4004e30134b0b4400221a73012400e00224f1
:1026e400019b13f0010f0cd0010101f1824202f5ac
:1026f4002042012382f84e30094b0b4400221a7306
:102704000224074b03eb00135b6833b1044a02eb6a
:10271400001399685b682046984702b010bd00bf5b
:04272400f816002083
:020000040000fa
:102728002de9ff471d460c9b13f0010906468a4612
:10273800144601d195420bd822465146304600f046
:10274800e2fda54204d82546284604b0bde8f08736
:102758002f1b102f3a464ff0200128bf1022684641
:10276800b84601f085f9b8f10f0f11d83b096ff0a1
:102778000f0202fb03726946304600f0c4fdb9f14e
:10278800000fe1d122465146304600f0bcfddbe7a0
:1027980010226946304600f0b6fda8f11008e2e7bd
:020000040000fa
:1027a800842910b523d00cdc812903d0822913d0c9
:1027b80080290bd119680c1d1c600b6803601a6016
:1027c80013e0902921d003dc882917d0002010bd00
:1027d800a029efd0c029ece719680c1d1c600b6814
:1027e8000360d1171046c3e900010120efe719681b
:1027f8000c1d1c600b6803601a80f6e719680c1d35
:102808001c600b6803601a70efe719680c1d1c60e8
:0c28180009680160d317c1e90023e6e75e
:020000040000fa
:102824002de9f84f04460c9f6668d4f80cb024696f
:1028340010463a68013c002502f0020a0b9a0bf894
:102844000450002e1946b8bf0126012390464fead2
:10285400e279002c03dcd3b12046bde8f88f50eabe
:10286400010209d1721b002a06dc0a9a521b002ab3
:10287400f1ddbaf1000feed042464b4600f0bafe4d
:10288400013c134630320bf804200135e1e73b6884
:0828940023f010033b60dfe7b5
:020000040000fa
:10289c00f8b5846a05460f46164654b1ab6a6a69a8
:1028ac009b1ab3420bd2324639462846fff76afed2
:1028bc00f8bd01f073f80028f0d02046f8e7002ea0
:1028cc00f1d095f93430002b1bdbdbb23446621ea1
:1028dc00b95c994212d1224639462846fff752fe7e
:1028ec00a042e5d32744341b22463946686901f0df
:1028fc0083f86b691c446c613046d9e71446002a96
:06290c00e5d13446f0e7be
:020000040000fa
:10291200f0b50c4649682368a768e56887b00029c6
:102922000593a4bf23f00203059305ab029308238a
:10293200cde900730646d2e900232046fff771ff76
:10294200059bd90642bf00f1ff3030232b54059b73
:102952001a0742bf00f1ff3020232b542269059b46
:102962000093013a3b46121a29183046fff7dbfe64
:102972007368db0503d563689842b8bf184607b091
:02298200f0bda6
:020000040000fa
:10298400174bda6822f4e0621204120c42f0bf62c0
:1029940042f40032da60bff35f8f62b6114ae0217d
:1029a40082f81f134ff00040106082f86b134ff44d
:1029b4000060d06082f86c134ff48051d1605a6a81
:1029c40042f480225a625a6942f010025a615a6ae9
:1029d40042f400325a625a6a42f480325a627047b0
:0829e40000ed00e000e100e05d
:020000040000fa
:1029ec00184b012283f8422083f84420002183f8fd
:1029fc00521083f8312083f8322083f839104ff0cd
:102a0c000040c3f8900083f8c82083f8c92083f8ed
:102a1c00d02083f8d120062283f8df20112283f8fe
:102a2c00b420222283f8b82083f8bf104ff4802200
:102a3c00c3f80021c3f8102183f8521183f839111f
:082a4c00704700bf008000414b
:020000040000fa
:102a540070b5144b144a0021934206d3134a00253f
:102a6400d2e9003123b919b970bd03f8011bf3e7aa
:102a7400946858180c3294b11446834208d111f06a
:102a8400030318bf012303eb910102eb8102e7e783
:102a940014f8016b03f8016befe703f8015b834261
:102aa400fbd1dde70000002000000020c011000081
:020000040000fa
:102ab4007fb5c36800911546002b18bf013a0192f7
:102ac40082680446cde902230e4602226946006864
:102ad40000f048fd002808dc00f0180383f0080229
:102ae40063681343636005460fe0019a8242fad299
:102af400a368e363801ae268184420642ab15a1c6c
:102b0400e2632e441b7806f8013c284604b070bded
:020000040000fa
:102b1400154b01221a801a46136b13f0010ffbd1d7
:102b24004ff080131b681a0902f07002d90001f4f7
:102b3400e0610a43c3f382031a430b4ba3f8482012
:102b440000221a800322da721a7201229a6341f671
:102b540004029a800222da80072283f82e201a4681
:0c2b6400136b002bfcd17047001c0043d9
:020000040000fa
:102b7000154b01221a801a46136b13f0010ffbd17b
:102b80004ff080131b689a0c02f07002d90a01f40e
:102b9000e0610a43c3f302431a430b4ba3f84820f6
:102ba0004ff400721a800322da721a724ff4c05284
:102bb0009a800022da80072283f82e201a46136baf
:0c2bc000002bfcd1704700bf0020004338
:020000040000fa
:102bcc000e4a38b5002313600d4a0e4c13600e4aa2
:102bdc000e4d13600e4a13600e4a13600e4a536278
:102bec0013610123936000f039ff00f09efcac42ae
:102bfc0000d338bd54f8043b9847f8e75c17002025
:102c0c008816002070020000841600207402000058
:0c2c1c007c160020801600208c16002082
:020000040000fa
:102c2800202122232424252526262727282828284a
:102c3800292929292a2a2a2a2b2b2b2b2c2c2c2ce4
:102c48002c2c2c2c2d2d2d2d2d2d2d2d2e2e2e2eac
:102c58002e2e2e2e2f2f2f2f2f2f2f2f0001170222
:102c68001d1813031e1b190b1408040d1f161c1224
:0c2c78001a0a070c1511090610050f0eb2
:020000040000fa
:102c840038b50d46044608b9002038bd43689b0694
:102c940007d5d0e905239a4216d80023c4e90533a1
:102ca400a362d4e90f13994204d20122c91a2068fd
:102cb40000f032ff0023c4e90f33002de4d0206874
:102cc400bde8384000f025bf0022c36a114698478a
:0c2cd4006369002be1d14ff0ff30d6e720
:020000040000fa
:102ce00008b500f0a9fe124b1b680021186800f01f
:102cf000abfe104b1b680021186800f0a5fefff723
:102d000075fefef7cdfe00f0ddfefff703ff00f0dd
:102d10004dfd00f095f800f0dbfbfff729ff00f018
:102d200079fa00f0cbf900f00ffbfff72bfe08bd9e
:082d3000741700205818002060
:020000040000fa
:102d380070b5d0e90245a54217d10122a1f12003bf
:102d4800c1f1200622fa06f602fa03f333438a4059
:102d5800db43d6431ab10b490a6832400a605a1c51
:102d68001fbf084a51680b4053604368ac6043f08a
:102d7800010223f00103e5604260c25842f00102fb
:082d8800c25070bda813002029
:020000040000fa
:102d90002de9ff41134dd1f80080af88adf80c70dc
:102da00006462868029002aca8798df80e00002a29
:102db00018bf1446d1e901571a461bb9204600f046
:102dc0004bfe0246002d02dbaa4228bf2a46cdf860
:102dd00000803b4621463046fff7a6fc04b0bde824
:082de000f08100bf083b000078
:020000040000fa
:102de800f0b50c4649682368a668e76887b00029eb
:102df8000593a4bf23f00203059305ab02930a23ae
:102e0800cde900630546d2e900232046fff706fd19
:102e18002269059b0093013a3346121a391828464d
:102e2800fff77efc6b68db0503d563689842b8bf83
:062e3800184607b0f0bdd2
:020000040000fa
:022e3e00fee7ad
:020000040000fa
:102e40000f4a002313705360936013730d480e4ba9
:102e500058630e499963596941f0813159610c49b0
:102e6000196440f609110180012183f845101170a1
:102e7000032283f84d2040f602721a80704700bf8b
:102e8000f8160020e816002000a0004108170020d6
:042e900000442000da
:020000040000fa
:102e940053ec102b70b4c3f30a5440f2ff75ac42e8
:102ea40012d08cb11946204440f2fe7398420ddcd6
:102eb400002813dd21f0ff4121f4e00110ee102a77
:102ec40041ea005343ec102b70bc704701f0004101
:102ed40041f0ff43002243f4e003f3e7002201f052
:042ee4000043efe7d1
:020000040000fa
:102ee80010b370b506460d4600f022fbd5b100249c
:102ef8000e4a137e13f0040ffbd0538b13f0070f09
:102f08000bd1536803f00703012b936a14bf3355a1
:102f180026f814300134a542ebd1a54214bf002095
:102f2800012070bd2c46f8e70020704700040043dc
:020000040000fa
:102f3800012800d0704708b50c4b01221a700c4bc1
:102f48001b889bb243b10020094b1880c823094a4b
:102f58000949fff791f908bd054b01221a80c823da
:102f6800064a05490020fff787f9f4e76c170020a7
:102f78006a17002000000020401c0043d0070020f2
:020000040000fa
:102f880013b5836a8df80710044673b16369a26aa2
:102f9800934212d3e36a01220df1070120469847b4
:102fa800012806d19df8070005e000f0f9fc00288b
:102fb800ecd04ff0ff3002b010bd9df8070094f937
:0e2fc80034209042e6d05a1c62611870f3e784
:020000040000fa
:022fd600fee714
:020000040000fa
:102fd800537461727465642e2e2e2e310d0000001c
:102fe800414443566f6c743d2564206d56000000c3
:102ff8002020202020202000524d53566f6c743d15
:10300800256c75206d560000417667526d73566fba
:0c3018006c743d256c75206d560d0a008f
:020000040000fa
:10302400022a70b5044616461d461ad043689b060c
:1030340017d441b9002d08bf4ff4806505f108008d
:10304400fef704fe01466368012e43f0200363602b
:10305400c4e9021514bfff230a2384f83430024b59
:0c306400e362002070bd00bf9d2800004a
:020000040000fa
:10307000c1f30a5340f21e42d21a0edd202a0ad8aa
:10308000cb0243ea505040f00040d04090eae1705b
:10309000b0ebe1707047002070474b00004218bf52
:1030a00043f0010313f5001f88bf21f0004111f028
:0a30b000004058bf6ff00040704769
:020000040000fa
:0230ba0070475d
:020000040000fa
:1030bc000f4b01221a601a46136913f0010ffbd152
:1030cc000b4b4ff4e2621a6003221a734ff6ff7235
:1030dc009a8333229a72074a0021116001225a7294
:1030ec004ff48072da801a461369002bfcd17047ba
:0830fc000038004024170020f9
:020000040000fa
:1031040010b50278202a034600f10100f9d0a2f19b
:1031140009010429f5d92b2a07d02d2a11d101211f
:103124000133013b00200a2403e00021f8e7604357
:10313400801a13f8012f303a092af8d901b940420c
:0631440010bd0021ede7c3
:020000040000fa
:02314a00fee79e
:020000040000fa
:10314c00d0b110b40446c9b1084421460c4a6442bb
:10315c00137e13f0010ffbd0536803f00703012b10
:10316c0014bf0b7834f81130936201318142efd1e6
:10317c0001205df8044b7047002070470120f8e7f0
:04318c0000040043f8
:020000040000fa
:1031900053ec102bc3f30a5170b479b140f2ff75b0
:1031a000a94210d023f0ff4424f4e00444f07f53fc
:1031b00010ee102a43f40013a1f2fe3143ec102b61
:1031c000016070bc7047002143ec102b016070bca3
:0431d000704700bf85
:020000040000fa
:1031d40010b5054c227832b9044b13b10448aff34f
:1031e40000800123237010bdcc16002000000000d5
:1031f4000000000008b5034b1bb103490348aff3bb
:10320400008008bd00000000d0160020000000006f
:020000040000fa
:103214000d4b01221a601a46136913f0010ffbd1fa
:10322400094b10221a6003221a7347f6ff429a834d
:1032340033229a72054a0021116001225a721a46f9
:103244001369002bfcd17047003c00402c17002070
:020000040000fa
:103254000c4a036810b5546a0b4a591e121b8a4261
:103264000ad22bb1094b0c221a604ff0ff3010bd6b
:10327400102202600020fae7173323f00f030360e3
:10328400f8e700bf8c160020efffff7f60170020d7
:020000040000fa
:1032940010b44c68a40602460b4603d45df8044bf4
:1032a40000f088b891f93410c0b2814203d0596952
:1032b4009c6aa14205d3114618465df8044bfff7fa
:0e32c40061be4c1c5c610a705df8044b7047e3
:020000040000fa
:1032d2004ff4001c1ceb410f98bf1ceb430f11d89d
:1032e20051ea030c50ea4c0c5cea020c0cd004d2fa
:1032f20082428b4180410130704790429941804126
:0c33020001307047002070470120704728
:020000040000fa
:10330e0038b5436813f4807f0446154610d0036920
:10331e0040699a4228bf1d462a4600f06cfb62693e
:10332e005319636123695b1b23610023535538bd19
:0a333e00db06fcd400f03dfbf9e7cc
:020000040000fa
:103348000c4b01221a701a7812f0010f03d09a68f8
:1033580012f0010ff7d1074b02225a700a229a8104
:103368001a7842f002021a701a46936813f0020f94
:08337800fbd170470024004363
:020000040000fa
:1033800008b50a4b5b7a7bb1084b987ac0b23322fe
:103390009a72074b1b6823b118b1054b59681b681b
:1033a0009847044b01221a6008bd00bf0038004056
:0833b000241700203c17002047
:020000040000fa
:1033b80007b54a68c0b2d2050b468df8070006d596
:1033c8004a69511c5961107003b05df804fb012271
:1033d8000df10701184600f0effa10b19df807004b
:0833e800f2e74ff0ff30efe7c0
:020000040000fa
:1033f00000090138202813d9b0f5007f05d2094b08
:1034000003ebd00010f8040c7047b0f5e05f06d86d
:10341000044b03ebd01010f8040c103070473f2021
:08342000704700bf282c0000da
:020000040000fa
:1034280030b50c4a002312f8134024b902eb4303c9
:103438005b78184630bd01680d78a54209bf02ebdc
:10344800430301335b78013114bfdbb201600a2bff
:08345800e9d9eee7123900008a
:020000040000fa
:103460004ff4001c1ceb410f98bf1ceb430f11d80d
:1034700051ea030c50ea4c0c5cea020c0ad004d26c
:1034800082428b4180414042704790429941804145
:08349000404270470020704724
:020000040000fa
:103498004ff4001c1ceb410f98bf1ceb430f11d8d5
:1034a80051ea030c50ea4c0c5cea020c0ad004d234
:1034b8009042994180414042704782428b4180410d
:0834c8004042704700207047ec
:020000040000fa
:1034d0000a4b0b4a1a604ef28a029a814ff440322c
:1034e0005a601a46d369002bfcd1044a136843f092
:1034f00002031360d369002bfcd170470004004322
:043500000401124070
:020000040000fa
:103504004ff4001c1ceb410f98bf1ceb430f0cd86d
:1035140050ea410c08bf52ea430c08d0904208bf5d
:1035240099420cbf01200020704700207047012001
:023534007047de
:020000040000fa
:023536007047dc
:020000040000fa
:103538000a4b5b8b13f0070f0ed0084b80221a76cc
:1035480007225a831b7e13f0040f05d0034b9a6a97
:103558001a7e12f0040ffad1704700bf000400432e
:020000040000fa
:103568002de9f843002580460e4617462c4601f102
:103578000409bc4202db2846bde8f88359f8342028
:1035880056f83410404600f087f901340544f0e756
:020000040000fa
:1035980070b505462c68e30701d500200fe02046ea
:1035a800fff722ff064600f067f92868a042f1d12c
:1035b80020f00100281a3146fff7bafb012070bd40
:020000040000fa
:1035c8002de9f843002580460e4617462c4601f1a2
:1035d8000409bc4202db2846bde8f88359f83420c8
:1035e80056f83410404600f066f901340544f0e717
:020000040000fa
:1035f80053b94ab9002908bf00281cbf4ff0ff3152
:103608004ff0ff30fef7aebeadf1080c6de904ce09
:10361800fdf774fcddf804e0dde9022304b070472f
:020000040000fa
:10362800426822f00102531a102b30b40dd9441805
:1036380041f0010543f00103455063608350456044
:0e36480004f1080030bcfef79bbd30bc70479b
:020000040000fa
:023656007047bb
:020000040000fa
:1036580008b5084b5b7a63b1064b987ac0b233223f
:103668009a72054b1b6823b118b1034b59681b6844
:0c367800984708bd003c00402c170020c3
:020000040000fa
:1036840070b505466c68e30701d500200de02046bf
:10369400fff7acfe064600f0f1f86b68a342f1d1e7
:0c36a40028463146fff746fb012070bdb0
:020000040000fa
:1036b00000b553ec112b83b051ec100b8ded002baa
:1036c000fef73afc9ded002b53ec122bfdf7b0fefc
:0c36d00041ec100b03b05df804fb00bfe0
:020000040000fa
:1036dc00074b1968024609b906491960186806496a
:1036ec0002448a4294bf1a604ff0ff30704700bf0b
:0c36fc006417002060180020601a0020f5
:020000040000fa
:1037080070b5002902fb01f614460d4618bf144691
:1037180001463246184608bf002400f04df986429b
:0a37280018bfb0fbf5f4204670bd99
:020000040000fa
:10373200802910db812901dd83290cd1136807332d
:1037420023f0070303f108011160d3e90023c0e964
:0a375200002301207047002070479b
:020000040000fa
:10375c0010b5084c2368196800f07bf8002807dbcb
:10376c0023680a20196800f0c0f9c00f404210bd50
:08377c000120fbe758180020b2
:020000040000fa
:1037840090f948305a1e1343426880f8483012f0ca
:1037940004031bbf42f010024260c0e90f334ff034
:0837a400ff3008bf1846704712
:020000040000fa
:1037ac00054a00231360936004495160062111609f
:1037bc00034a93601360704710e000e0bfd401002f
:0437cc0018170020aa
:020000040000fa
:1037d00008b5064b5868064a12689a6801329a6022
:1037e0001b6813b1014b1b68984708bd18170020d0
:0437f00010e000e005
:020000040000fa
:1037f4000b0d40f21e42d21a09dbcb0243ea5050b1
:1038040040f00040202a28bf2022d04070474900c1
:043814008041704738
:020000040000fa
:103818000fb407b5064b04aa1b6852f8041b1868b6
:10382800019200f064f803b05df804eb04b070474f
:0438380058180020fc
:020000040000fa
:10383c0010f0004160b148bf40420a0d02f21d4237
:10384c00b0fa80f3d21a9840c30a400503eb025138
:02385c007047b3
:020000040000fa
:10385e0070b50e46054600f0f8f8334604460246ab
:10386e0001212846fff749ff001b18bf4ff0ff301c
:02387e0070bd1b
:020000040000fa
:10388000064b013053f830203ab9c100a1f10802cb
:103890001a44194443f830204a607047a8130020a6
:020000040000fa
:1038a00038b550b952b10c46012529462046fff7dc
:0e38b0001bfb0028f9d0012000e0002038bded
:020000040000fa
:1038be0038b50d461446012801d0204638bd2146a4
:0c38ce002846fff73cfc0028f9d0f6e784
:020000040000fa
:1038da0050b140f21d42b0fa80f1521a8840c30a30
:0c38ea00400503eb0251704701007047dd
:020000040000fa
:1038f60013b50446019201aafdf787f9636813f030
:0c390600100f18bf4ff0ff3002b010bdd2
:020000040000fa
:1039120068076c094c836a9074a07ac0008068883a
:0c39220000846c820081286e696c290012
:020000040000fa
:02392e007047e0
:020000040000fa
:10393000044a138843f002031380136b002bfcd15d
:08394000704700bf001c0043aa
:020000040000fa
:10394800044a137d43f002031375136b13f4006fdd
:08395800fbd17047001c004385
:020000040000fa
:10396000044a138843f002031380136b002bfcd12d
:08397000704700bf0020004376
:020000040000fa
:10397800044a536843f480335360d369002bfcd165
:08398800704700bf000400437a
:020000040000fa
:10399000044a136843f002031360136913f0020f23
:0839a000fbd170470038004024
:020000040000fa
:1039a80010b50446fff7eafe28b9a368e268c4e93f
:0839b80005331344a36210bda6
:020000040000fa
:1039c00010b4c46a1cb123465df8044b1847006864
:0839d0005df8044bfff773bf23
:020000040000fa
:1039d8000068002808b501da002008bdfff77afe64
:0639e800431cfad1f8e7d0
:020000040000fa
:1039f00008b500f085f8024b1860586008bd00bf9c
:043a00003417002057
:020000040000fa
:103a040010b500239a4200d110bdcc5cc4540133dc
:023a1400f8e7d1
:020000040000fa
:103a1600034611f8012b184603f8012b002af8d1aa
:023a26007047e7
:020000040000fa
:103a2800024b03eb0010416082607047f8160020db
:020000040000fa
:103a3800024b40f204521a80704700bf0040004118
:020000040000fa
:103a480000294ff480630cbf02220022fff7e6ba78
:020000040000fa
:103a580003461a46013311780029fad1101a704723
:020000040000fa
:103a680008b5fff7c1fffff7f2fdfff7f0fd08bd4e
:020000040000fa
:103a780002440346934200d1704703f8011bf9e75b
:020000040000fa
:103a8800494e4600696e66004e414e006e616e00fa
:103a9800494e4600696e66004e414e006e616e00ea
:020000040000fa
:0e3aa800a0f14103192b98bf40f02000704799
:020000040000fa
:0e3ab600a0f16103192b98bf00f05f0070476c
:020000040000fa
:0c3ac400014b80221a72704700e00041a4
:020000040000fa
:0c3ad00010b50446fff79fff204610bd14
:020000040000fa
:0a3adc0008b50020fef7e0fd08bd6c
:020000040000fa
:083ae600bff35f8f62b6704769
:020000040000fa
:083aee0083f00043fdf79dbccd
:020000040000fa
:083af60008b5fff7ccfb08bd89
:020000040000fa
:083b000000487047dc170020ab
:020000040000fa
:073b0800286e756c6c2900aa
:020000040000fa
:063b10000068fff7d4bebf
:020000040000fa
:063b16004ff0ff30704784
:020000040000fa
:043b1c0000207047ce
:020000040000fa
:0200000400807a
:044000003912003c35
:020000040000fa
:0200000400807a
:044004008000a82a66
:020000040000fa
:0200000400807a
:04400800ffffffffb8
:00000001FF
